:020000040800F2
:1000000000000220CD650008C1340008C334000898
:10001000C5340008C7340008C934000800000000D7
:10002000000000000000000000000000CB340008C9
:10003000CD34000800000000CF340008D13400089F
:100040001D6600081D6600081D6600081D66000884
:100050001D6600081D660008D33400081D660008F0
:100060001D6600081D6600081D6600081D66000864
:100070001D6600081D6600081D6600081D66000854
:100080001D6600081D6600081D66000800000000CF
:100090000000000000000000000000001D660008D5
:1000A0001D6600081D6600081D6600081D66000824
:1000B0001D660008193500081D660008E9340008AF
:1000C000F93400081D6600081D6600081D6600085A
:1000D0001D6600081D6600081D660008000000007F
:1000E000DD3400081D6600081D66000800000000E1
:1000F0000000000000000000000000001D66000875
:10010000000000001D660008093500081D66000893
:1001100000000000000000000000000000000000DF
:100120001D6600081D6600081D6600081D660008A3
:100130001D66000800000000000000000000000034
:100140000000000000000000000000001D66000824
:100150001D6600081D6600081D6600081D66000873
:100160001D6600081D660008000000000000000079
:10017000000000000000000000000000000000007F
:10018000000000001D6600080000000000000000E4
:080190001D6600081D66000851
:1001A00010B5054C237833B9044B13B10448AFF3B1
:1001B00000800123237010BDAC000020000000006F
:1001C000E06F000808B5034B1BB103490348AFF3C8
:1001D000008008BD00000000B0000020E06F0008B3
:1001E000034613F8012B002AFBD1181A0138704777
:1001F00001F0FF01102A2BDB10F0070F08D010F8D8
:10020000013B013A8B422DD010F0070F42B3F6D1DB
:10021000F0B441EA012141EA014122F007047FF0F4
:1002200000070023F0E80256083C85EA010586EA4B
:10023000010685FA47F5A3FA87F586FA47F6A5FA87
:1002400087F68EB9EED1F0BC01F0FF0102F0070293
:1002500032B110F8013B013A83EA010313B1F8D13E
:100260000020704701387047002D06BF354603381F
:10027000073815F0010F07D1013015F4807F02BF58
:10028000013015F4C03F0130F0BC0138704700BFA9
:1002900081F0004102E000BF83F0004330B54FEA37
:1002A00041044FEA430594EA050F08BF90EA020FA4
:1002B0001FBF54EA000C55EA020C7FEA645C7FEA37
:1002C000655C00F0E2804FEA5454D4EB5555B8BF5A
:1002D0006D420CDD2C4480EA020281EA030382EACB
:1002E000000083EA010180EA020281EA0303362D5D
:1002F00088BF30BD11F0004F4FEA01314FF4801C30
:100300004CEA113102D0404261EB410113F0004F41
:100310004FEA03334CEA133302D0524263EB4303F8
:1003200094EA050F00F0A780A4F10104D5F1200E96
:100330000DDB02FA0EFC22FA05F2801841F10001F1
:1003400003FA0EF2801843FA05F359410EE0A5F1C5
:1003500020050EF1200E012A03FA0EFC28BF4CF0F6
:10036000020C43FA05F3C01851EBE37101F00045AC
:1003700007D54FF0000EDCF1000C7EEB00006EEBB9
:100380000101B1F5801F1BD3B1F5001F0CD3490843
:100390005FEA30004FEA3C0C04F101044FEA44529A
:1003A00012F5800F80F09A80BCF1004F08BF5FEA21
:1003B000500C50F1000041EB045141EA050130BD01
:1003C0005FEA4C0C404141EB0101013C28BFB1F513
:1003D000801FE9D291F0000F04BF01460020B1FA5E
:1003E00081F308BF2033A3F10B03B3F120020CDA31
:1003F0000C3208DD02F1140CC2F10C0201FA0CF00F
:1004000021FA02F10CE002F11402D8BFC2F1200C73
:1004100001FA02F120FA0CFCDCBF41EA0C01904029
:10042000E41AA2BF01EB0451294330BD6FEA040472
:100430001F3C1CDA0C340EDC04F11404C4F120025D
:1004400020FA04F001FA02F340EA030021FA04F36F
:1004500045EA030130BDC4F10C04C4F1200220FAC6
:1004600002F001FA04F340EA0300294630BD21FA04
:1004700004F0294630BD94F0000F83F4801306BFCA
:1004800081F480110134013D4EE77FEA645C18BFBE
:100490007FEA655C29D094EA050F08BF90EA020F55
:1004A00005D054EA000C04BF1946104630BD91EA4D
:1004B000030F1EBF0021002030BD5FEA545C05D150
:1004C0004000494128BF41F0004130BD14F580048F
:1004D0003CBF01F5801130BD01F0004545F0FE4103
:1004E00041F470014FF0000030BD7FEA645C1ABF38
:1004F000194610467FEA655C1CBF0B46024650EA6F
:10050000013406BF52EA033591EA030F41F400219A
:1005100030BD00BF90F0000F04BF0021704730B520
:100520004FF4806404F132044FF000054FF00001F5
:1005300050E700BF90F0000F04BF0021704730B5B6
:100540004FF4806404F1320410F0004548BF40428B
:100550004FF000013EE700BF42004FEAE2014FEAE0
:1005600031014FEA02701FBF12F07F4393F07F4FBB
:1005700081F06051704732F07F4208BF704793F0BE
:100580007F4F04BF41F40021704730B54FF46074D1
:1005900001F0004521F000411CE700BF50EA0102D4
:1005A00008BF704730B54FF000050AE050EA01027D
:1005B00008BF704730B511F0004502D5404261EBED
:1005C00041014FF4806404F132045FEA915C3FF42E
:1005D000D8AE4FF003025FEADC0C18BF03325FEACB
:1005E000DC0C18BF033202EBDC02C2F1200300FA7C
:1005F00003FC20FA02F001FA03FE40EA0E0021FAA1
:1006000002F11444BDE600BF53B94AB9002908BF3E
:1006100000281CBF4FF0FF314FF0FF3000F088B9C9
:10062000ADF1080C6DE904CE00F006F8DDF804E049
:10063000DDE9022304B070472DE9F047089D0F461D
:1006400004468C46002B48D18A42164661D9B2FA3C
:1006500082F34BB1C3F1200201FA03FC20FA02F24B
:100660009E4042EA0C0C9C404FEA164EB7B2BCFBCF
:10067000FEF1220C0EFB11CC42EA0C4201FB07F00A
:10068000904209D9B21801F1FF3C80F0EE8090420F
:1006900040F2EB8002393244121AA4B2B2FBFEF0EF
:1006A0000EFB102244EA024400FB07F7A74209D9D7
:1006B000341900F1FF3280F0DA80A74240F2D7808F
:1006C0003444023840EA0140E41B00211DB1DC4003
:1006D0000023C5E90043BDE8F0878B4206D90DB180
:1006E000C5E9000100210846BDE8F087B3FA83F1AF
:1006F000002948D1BB4202D3824200F20781841A0A
:1007000067EB030201209446002DE4D0C5E9004CBC
:10071000E1E7002A00F09280B2FA82F3002B40F069
:10072000A8808A1A4FEA164E1FFA86FC0121200C77
:10073000B2FBFEF70EFB172240EA02420CFB07F069
:10074000904207D9B21807F1FF3802D2904200F266
:10075000E2804746121AA4B2B2FBFEF00EFB102252
:1007600044EA02440CFB00FCA44507D9341900F10B
:10077000FF3202D2A44500F2CB801046A4EB0C0459
:1007800040EA0740A2E7C1F120068B4022FA06FCAE
:100790004CEA030C07FA01F420FA06F3F7404FEA9B
:1007A0001C49234300FA01F81FFA8CFEB7FBF9F04D
:1007B0001C0C09FB107744EA074400FB0EF7A74224
:1007C00002FA01F20AD91CEB040400F1FF3A80F0AE
:1007D0009B80A74240F2988002386444E41B9FB299
:1007E000B4FBF9F309FB134447EA044403FB0EFE90
:1007F000A64509D91CEB040403F1FF3780F0828081
:10080000A6457FD9023B644443EA0040A4EB0E04B2
:10081000A0FB02E7BC427346B94663D360D05DB12A
:10082000B8EB030264EB090404FA06F622FA01F3BA
:100830001E43CC40C5E9006400214CE7620848082B
:1008400042EAC1710B0C43EA00438AB242EA034216
:10085000B3FBF6F1E407B4463746B6461F23B0FBB8
:10086000F6F0D21B41EA004161E7614614E7104609
:1008700028E7C3F1200120FA01F29E4027FA01F196
:100880009F403A434FEA164E1FFA86FCB1FBFEF733
:100890000EFB1710110C41EA004107FB0CF88845CC
:1008A00004FA03F43AD9711807F1FF3001D28845F0
:1008B0001FD8A1EB0801B1FBFEF808FB0CF70EFBFB
:1008C000181192B242EA0142BA422FD2B21808F18C
:1008D000FF31C6D2BA42C4D2A8F102013244C0E705
:1008E000F0459CD2BEEB020367EB0C070138B9461A
:1008F00095E7A6EB08084144B81EB1FBFEF808FBDB
:100900000CF7DCE73B467FE7504667E70846FBE627
:100910003444023832E7023F32441BE7A1EB0801BE
:100920003846B1FBFEF808FB0CF7C8E7414698E7EC
:10093000704700BF08B5134B1B7803B108BD1248C0
:1009400003F1804303F5903303604FF48033436039
:10095000002383600361037680F82030C3620B4A72
:100960008262C3600122C26180F83030426102F0CD
:10097000E7FF18B9034B01221A70DFE701F0B8FD59
:10098000F8E700BFC8000020CC0000200100000FE5
:1009900070B584B00023009301930293039362B374
:1009A00005460C461646FFF7C5FF00950123019347
:1009B0000294002303936946114803F0F1F810B143
:1009C000002004B070BD0E4802F0E6FF08B1002020
:1009D000F7E70A210A4803F083F848B9084C204693
:1009E00003F0DAF83080204603F05AF80120E8E7F7
:1009F000034803F055F80020E3E70020E1E700BFDB
:100A0000CC00002010B588B0434B1B78013B052B70
:100A100054D8DFE803F00314254242553F49002033
:100A200000F0C8FE3E49012000F0C4FE3D4902200E
:100A300000F0C0FE3C49032000F0BCFE3EE0374918
:100A4000002000F0B7FE3949012000F0B3FE35491F
:100A5000022000F0AFFE3449032000F0ABFE2DE091
:100A600002AC334B1868FFF777FDCDE90001314A3E
:100A70001521204605F0D4FD2849002000F09AFEFB
:100A80002D49012000F096FE2146022000F092FE42
:100A90002A49032000F08EFE10E02049002000F0DB
:100AA00089FE2749012000F085FE1F4C21460220C7
:100AB00000F080FE2146032000F07CFE08B010BD4F
:100AC00001F0C2FA10EE100A02ACFFF745FDCDE9C5
:100AD00000011C4A1521204605F0A2FD1A490020FC
:100AE00000F068FE2146012000F064FE01F06CFA7F
:100AF00010EE100AFFF730FDCDE90001134A152171
:100B0000204605F08DFD2146022000F053FE1049DD
:100B1000032000F04FFED1E71C010020F86F000811
:100B20000C70000820700008707200083470000813
:100B30000400002048700008587000086C7000081D
:100B4000807000088C70000898700008AC70000875
:100B5000BC70000810B4144C94F80CC00CF1550C87
:100B60005FFA8CFCBCF1020F19D808B1246804604C
:100B700011B10D484068086012B10B4989681160D5
:100B80007BB1094A127BAD2A05D0084A1A600120C0
:100B90005DF8044B7047044AD2F80D20F6E70020B8
:100BA000F6E70120F4E700BF000006080000B442A9
:100BB000F0B58DB010EE107A064610EE905A11EE98
:100BC000104A03F0F5F907A80023079343608360F8
:100BD000C36003610722099201220A9202220B924A
:100BE000069306A903F0DCFAD8B90197029603959B
:100BF000AD238DF81030CDF811400024102C18D8FA
:100C0000002004F130030DEB030212F82C2C0346F4
:100C100004F1006101F5C02103F01CFA28B9013488
:100C2000ECE703F0DDF9002006E003F0D9F900203D
:100C300002E003F0D5F901200DB0F0BD034B002216
:100C40001A70034B4FF07E521A6070471C0100204F
:100C50000400002008B5084B01221A70074B4FF022
:100C60007E521A60064B83ED000A042000F0BAFCA5
:100C7000FFF7C8FE08BD00BF1C01002004000020D3
:100C800000000020054B1B782BB1072B01D0012061
:100C90007047002070470020704700BF1C010020F3
:100CA00008B5154B1B78013B052B0FD8DFE803F087
:100CB000030F190E0E1D01F0B1F901F0D7F90F4B1A
:100CC00018600D4B02221A70FFF79CFE08BD01F060
:100CD000CDF90B4B1860084B03221A70FFF792FEF8
:100CE000F4E7054B04221A70F0E7034B07221A7051
:100CF000002000F077FCE9E71C010020180100202B
:100D00001401002000B583B00190154B1B78032B14
:100D100001D003B000BD07EE900AF8EEE77A9FED30
:100D2000117A67EE877A104BD3ED006A77EEA67AD8
:100D3000C3ED007AF4EEC77AF1EE10FA01D583ED37
:100D4000007A094B93ED007ADFED087AB4EEE77A8A
:100D5000F1EE10FA01DDC3ED007AFFF753FED8E79C
:100D60001C010020CDCCCC3D0400002000004842F6
:100D700010B52DED028B264B1B78042B1DD0052BB7
:100D80002ED101F061F9B0EE408A01F063F904461A
:100D9000204BD3ED008A02F0E3FCB0EE401AF0EEF7
:100DA000680A2046B0EE480AFFF702FF40B3184B2E
:100DB00006221A70FFF726FE12E0174B1B68174A2F
:100DC00012689B1A07D0164A92ED000AB5EEC00AC7
:100DD000F1EE10FA07DC0E4B05221A70FFF712FE37
:100DE000BDEC028B10BD07EE903AF8EEE77A87EE85
:100DF000800A01F023F9094B186801F031F9EAE79C
:100E0000034B07221A70074800F0C0FCE8E700BF58
:100E10001C01002000000020140100201801002007
:100E200004000020C870000800B585B08DF80F00E0
:100E30000523009301230DF10F024E21024803F018
:100E4000E5FF05B000BD00BF5002002010B500F066
:100E5000F00041EA000444F00C00FFF7E5FF44F025
:100E60000800FFF7E1FF10BD38B504460D4600F05D
:100E7000F000FFF7EBFF2001294600F0F000FFF73C
:100E8000E5FF38BD08B50021FFF7EEFF08BD000003
:100E900008B501F00301044B5B5C184460F07F006F
:100EA000C0B2FFF7EFFF08BD5073000808B501217D
:100EB000FFF7DAFF08BD10B5044602E00134FFF782
:100EC000F5FF20780028F9D110BD08B5322002F0D6
:100ED00089FC00213020FFF7B9FF052002F082FCD9
:100EE00000213020FFF7B2FF022002F07BFC00213E
:100EF0003020FFF7ABFF022002F074FC002120201D
:100F0000FFF7A4FF022002F06DFC2820FFF7BAFFD4
:100F1000012002F067FC0C20FFF7B4FF012002F073
:100F200061FC0120FFF7AEFF022002F05BFC06200F
:100F3000FFF7A8FF012002F055FC08BD10B52DED0C
:100F4000028B84B00446B0EE408A10EE900AF2EEB6
:100F5000047AB4EEE70AF1EE10FA12DBFFF7FCFABE
:100F6000CDE9020118EE100AFFF7F6FACDE900010B
:100F70000C4A0821204605F053FB04B0BDEC028B5F
:100F800010BDFFF7E9FACDE9020118EE100AFFF7EC
:100F9000E3FACDE90001044A0821204605F040FBB0
:100FA000EBE700BFDC700008E870000870B505468C
:100FB0000E460846FFF714F90446142800DD1424F1
:100FC00022463146284605F0B9FB02E020232B5586
:100FD0000134132CFADD00232B7570BDF0B58BB0F6
:100FE000334B1B7823B9334A12885AB1002500E0ED
:100FF0000025013B072B4CD8DFE803F0064D3F41AD
:10100000434547490125F4E72B4F2C4E2C493046E8
:10101000FFF7CCFF04AC2B4B1868FFF79DFACDE926
:101020000001294A1521204605F0FAFA214606F169
:101030001500FFF7BBFF254B1868FFF78DFACDE9C8
:101040000201234B1868FFF787FACDE90001214A16
:101050001521204605F0E4FA214606F12A00FFF7A3
:10106000A5FFD5B11C4D0FCD0FC42B68237004A96B
:101070001A48FFF79BFF0BB0F0BD194FC5E7194F9A
:10108000C3E7194FC1E7194FBFE7194FBDE7194F24
:10109000BBE7194FB9E7194FB7E7064B1B88009319
:1010A0003B46174A152104A805F0BAFADFE700BF4E
:1010B0004202002040020020F47000088C01002051
:1010C0003C7100083C0200205071000838020020EA
:1010D000100000206071000874710008CB0100202E
:1010E000047100080C710008147100081C710008DC
:1010F000247100082C71000834710008FC7000088D
:101100008871000830B589B01D491E48FFF74EFFB1
:10111000002422E0E2B22AE0601C00EB4000C0EBB9
:10112000C0001949174B1844FFF740FF14E03E2355
:1011300002AD164951F822200092154A1521284681
:1011400005F06EFA601C00EB4000C0EBC0002946C1
:101150000C4B1844FFF72AFF0134022C0DDC0D4B19
:101160001B78012BD6D91A19D2B2013AD2B2042A6D
:10117000D2D89342DBD02023DAE709B030BD00BFDC
:10118000987100088C010020707200083C73000800
:10119000A87100083502002070B58CB02849294894
:1011A000FFF704FF284B1E78012E05D9013EF6B249
:1011B000022E02D9022600E00026002526E0681C47
:1011C00000EB4000C0EBC00020491E4B1844FFF765
:1011D000EDFE1AE03E231E4A210102EB0414525890
:1011E000616806AC04A8029001910092194A152189
:1011F000204605F015FA681C00EB4000C0EBC0006B
:101200002146104B1844FFF7D1FE0135022D14DCA6
:1012100056FA85F4E4B2042CD1D80D4B03EB041339
:10122000D3ED030A93ED020A04A8FFF787FE064BED
:101230001B78A342CED02023CDE70CB070BD00BFF9
:10124000B07100088C010020340200207072000888
:101250005C730008C071000810B500240AE004EBBC
:101260004400C0EBC00005490144054B1844FFF79A
:101270009DFE0134032CF2DD10BD00BF38010020BB
:101280008C01002030B589B0104C11492046FFF781
:101290008DFE02AD0F4B1868FFF75EF9CDE9000136
:1012A0000D4A1521284605F0BBF9294604F1150021
:1012B000FFF77CFE094904F12A00FFF777FE084991
:1012C00004F13F00FFF772FE09B030BD8C01002031
:1012D000D071000808000020E4710008F8710008CF
:1012E0007072000810B50A4C0A492046FFF75EFEEE
:1012F000094904F11500FFF759FE084904F12A00D5
:10130000FFF754FE064904F13F00FFF74FFE10BD02
:101310008C0100200C72000820010020707200086F
:101320001C720008F0B58DB0474B93F90030DAB26B
:10133000042A5CD8454D1F0105EB031404AED4ED1F
:10134000030A94ED020A3046FFF7F8FD6368019640
:101350000093EB593E4A152106A805F061F906AC49
:101360003C4D21462846FFF721FE3B4B1868FFF70E
:10137000F3F8CDE90201394B1868FFF7EDF8CDE934
:101380000001374A1521204605F04AF9214605F1AA
:101390001500FFF70BFE334A13780133DBB21370ED
:1013A000314A127812B113F0030F26D106AC2F4B3D
:1013B0001868FFF7D1F8CDE902012D4B1868FFF747
:1013C000CBF8CDE900012B4A1521204605F028F97C
:1013D00021462948FFF7EAFD284B1B78013B072BE4
:1013E0002DD8DFE803F0102E20222426282A06AB71
:1013F000234A07CA83E80700B1E7224905F12A001A
:10140000FFF7D4FDE8E7204B06AC204A1288009293
:101410001F4A1521204605F003F921461D48FFF714
:10142000C5FD0DB0F0BD1C4BEEE71C4BECE71C4BB3
:10143000EAE71C4BE8E71C4BE6E71C4BE4E71C4BD8
:10144000E2E71C4BE0E700BF0C0000205C730008E3
:10145000307200088C010020180000204802002093
:10146000487200081D0100204302002014000020E3
:101470004402002074720008B601002042020020DD
:101480003C7200085C720008F47000084002002002
:1014900088710008CB010020047100080C7100085D
:1014A000147100081C710008247100082C710008D8
:1014B00034710008FC7000082DE9F843002600E0B4
:1014C0000136032E28DC06EB4604C4EBC404DFF827
:1014D0004C9004EB0905DFF8488004EB0807142260
:1014E0003946284605F0D2F80028E9D0F1B20020AC
:1014F000FFF7CEFC2846FFF7DEFC59F80430686899
:10150000A968EA6848F804307860B960FA602B6925
:101510003B612B7D3B75D3E7BDE8F8838C01002050
:10152000E001002010B55424224600210D4805F0AA
:10153000BDF8224600210C4805F0B8F822460021EB
:101540000A4805F0B3F80A4B00221A605A609A6004
:10155000DA601A611A75FFF7B8FC064B01221A709F
:1015600010BD00BFE00100208C01002038010020E8
:10157000200100200D00002008B5154B1B7883B119
:10158000134B00221A70134B1B78062B1CD8DFE874
:1015900003F004090C0F12151800FFF7C3FEFFF744
:1015A0008BFF08BDFFF71AFDF9E7FFF7ABFDF6E784
:1015B000FFF7F2FDF3E7FFF74FFEF0E7FFF762FEFC
:1015C000EDE7FFF78FFEEAE7FFF7ACFEE7E700BFC6
:1015D0000D0000204C020020014B1878704700BF1E
:1015E0004C0200200B4B1B78834200D1704710B592
:1015F0000446084B187054220021074805F056F89D
:10160000064B01221A70022C00D010BD044B0022A0
:101610001A70FAE74C020020E00100200D000020C3
:10162000350200200E4BD3ED007AF4EE407AF1EE55
:1016300010FA07D10B4BD3ED007AF4EE607AF1EE9D
:1016400010FA0BD0064B83ED000A064BC3ED000ADF
:10165000054B1B7813B9054B01221A70704700BF68
:1016600048020020180000204C0200200D0000203D
:10167000114BD3ED007AF4EE407AF1EE10FA0BD173
:101680000E4BD3ED007AF4EE607AF1EE10FA03D14E
:101690000B4B1B7883420DD0074B83ED000A074BA1
:1016A000C3ED000A064B1870064B1B7813B9064BA6
:1016B00001221A70704700BF44020020140000206D
:1016C000430200204C0200200D000020074B1B7835
:1016D000834205D0054B1870054B1B78012B00D9B0
:1016E0007047044B01221A70FAE700BF4202002043
:1016F0004C0200200D000020074B1B88834205D0C0
:10170000054B1880054B1B78012B00D97047044B03
:1017100001221A70FAE700BF400200204C020020AC
:101720000D000020144BD3ED007AF4EE407AF1EE78
:1017300010FA0FD1114BD3ED007AF4EE607AF1EE8E
:1017400010FA07D10E4BD3ED007AF4EE417AF1EEA8
:1017500010FA0CD0084B83ED000A084BC3ED000AC9
:10176000074B83ED001A074B1B78012B00D0704705
:10177000054B01221A70FAE73C02002010000020FD
:10178000380200204C0200200D00002010B5014658
:10179000064C1422204604F091FF002323750620F6
:1017A000FFF720FF024B01221A7010BD200100201C
:1017B0000D000020032800D9704710B500EB400051
:1017C000C0EBC000084C04441422204604F076FF0D
:1017D00000232375054B1B78042B00D010BD044B50
:1017E00001221A70FAE700BF380100204C020020E5
:1017F0000D000020094BD3ED007AF4EE407AF1EEB3
:1018000010FA05D083ED000A054B1B78052B00D09C
:101810007047044B01221A70FAE700BF080000204D
:101820004C0200200D00002008B5074B1870074B34
:101830001B7803B108BD54220021054804F036FF8F
:10184000044B01221A70F5E70C0000204C02002026
:10185000E00100200D000020074B1B78032B06D869
:101860000133054A1370054B1B78022B00D07047DB
:10187000034B01221A70FAE7350200204C020020C7
:101880000D000020074B1B7833B1013B054A137054
:10189000054B1B78022B00D07047044B01221A70B5
:1018A000FAE700BF350200204C0200200D000020A6
:1018B000014B1878704700BF35020020002807DD73
:1018C0000D4B1B78032B03D801330B4A137001E037
:1018D000002804DB094B1B78032B08D07047064B0C
:1018E0001B78002BF6D0013B034A1370F2E7044B40
:1018F00001221A70F2E700BF340200204C020020DF
:101900000D000020014B1878704700BF3402002002
:101910002DE9F04788B003AD0024039404940594A6
:10192000069407940094464B1A6B42F004021A6323
:101930001A6B02F004020092009A01941A6B42F0B2
:1019400001021A631A6B02F001020192019A0294D9
:101950001A6B42F002021A631B6B03F0020302933C
:10196000029B384F22464FF4E041384602F0D5FD45
:10197000DFF8D48022468021404602F0CEFD4FF4AD
:10198000E04303930126049605944FF00209CDF835
:1019900018902946384602F04DFC039604940596AB
:1019A0002946384602F046FC8023039304960594AA
:1019B000CDF818902946404602F03CFC03964FF4BF
:1019C000041ACDF810A005962946404602F032FCD4
:1019D0004FF00609CDF80C90049405962946384638
:1019E00002F028FC4FF40043039304940596294623
:1019F000384602F01FFC4FF4E0630393294640464B
:101A000002F018FC4FF480630393CDF810A0059604
:101A10002946384602F00EFC22462146484602F08E
:101A2000F9F9484602F006FA22463146282002F02B
:101A3000F1F9282002F0FEF908B0BDE8F08700BFF8
:101A400000380240000402400000024000B587B0A8
:101A500001A9002301934B608B60CB600B61009365
:101A6000094B1A6B42F001021A631B6B03F001036E
:101A70000093009B4FF40043019301230393034819
:101A800002F0D8FB07B000BD003802400000024061
:101A900008B50B480B4B03600B4B4360002383607E
:101AA000C3604FF48042026143618361C36103629A
:101AB00003F0B4F800B908BD00F01AFDFBE700BF61
:101AC0005002002000540040A086010070B588B08C
:101AD00000230393049305930693079302681C4B1A
:101AE0009A4201D008B070BD00250195194C236BB6
:101AF00043F002032363236B03F002030193019B72
:101B0000C02303931223049303260696042307930A
:101B100003A9114802F08EFB0295236C43F40013D5
:101B20002364236C03F400130293029B2A4631467C
:101B30001F2002F06FF91F2002F07CF92A4631467F
:101B4000202002F067F9202002F074F9CAE700BFF4
:101B500000540040003802400004024002680D4B6F
:101B60009A4200D0704710B50B4A136C23F400134F
:101B700013640A4C4021204602F040FC802120469C
:101B800002F03CFC1F2002F059F9202002F056F927
:101B900010BD00BF00540040003802400004024065
:101BA00029B10378132B04D80133037001E000231B
:101BB00003700378132B94BF0023012343707047F5
:101BC0000023084A1380084A1380084A1380084AF1
:101BD0001370084A1370084A1370084A1370084AB1
:101BE00013707047B4020020B0020020AC02002045
:101BF000A9020020A8020020A7020020A6020020BF
:101C0000AA02002070B54FF48061364802F07EFCD5
:101C1000012814BF00240124334B1B8813B1013B5E
:101C2000314A1380012805D0304B1B7813B12E4B5D
:101C30001B884BB12D4B1C702D4A13780133DBB23E
:101C40001370092B17D870BD0221264802F05EFCE4
:101C5000012809D0274A13785BB2013B5BB21370AD
:101C6000214B32221A80E5E7224A13785BB2013316
:101C70005BB21370F4E7134600221A701E4C6678AC
:101C80001E4D4FF40071284602F040FCB0FA80F17E
:101C900049091B48FFF784FF4FF48061284602F092
:101CA00035FCB0FA80F149091648FFF779FF0421A5
:101CB0000C4802F02BFCB0FA80F149092046FFF7EE
:101CC0006FFF36B96378002BBDD00F4B01221A701D
:101CD000B9E7094B5B78002BB5D10C4B01221A7088
:101CE000B1E700BF00040240A40200201C00002055
:101CF000AA020020A9020020AC020020000002403D
:101D0000B4020020B0020020A7020020A60200209A
:101D100008B50221094802F0F9FB012806D0084A5B
:101D200013785BB2013B5BB2137008BD044A1378B1
:101D30005BB201335BB21370F7E700BF00040240EF
:101D4000A902002070470000014B5878704700BF7F
:101D5000B4020020014B5878704700BFB002002049
:101D600072B6034B1878C0B200221A7062B6704780
:101D7000A7020020014B5878704700BFAC0200203A
:101D800072B6034B1878C0B200221A7062B6704760
:101D9000A602002072B6034B187840B200221A70D7
:101DA00062B67047A9020020014B1878704700BF47
:101DB000A8020020014B00221A707047A8020020E0
:101DC000014B01221A707047A802002000BF00BF1B
:101DD00000BF00BF00BF00BF00BF00BF00BF00BF0B
:101DE0007047000038B500252C4606E0134B4FF431
:101DF00000029A61FFF7EAFF0135172D0DDC0F4B4A
:101E000080229A61FFF7E2FF64000D4B1B6913F01B
:101E1000010FEBD044F00104E8E7084D8023AB61EB
:101E2000FFF7D4FF4FF40003AB61FFF7CFFF14F4CB
:101E3000000F01D044F07F44204638BD000002402E
:101E40000004024010B50E4B4FF400029A610D4B96
:101E50004FF07E521A6000240B4B1C600B4B1C7021
:101E60000B4B1C600B4B1C700B4B1C7001F0B4FC3B
:101E70000A4B18600A4B00221A600A4B1C7010BDF6
:101E80000000024020000020F4020020C4020020D4
:101E9000C0020020BC020020B6020020B8020020D0
:101EA000EC020020E802002070B53B4B1B6913F0E8
:101EB000010F4ED1394B00221A7001F08DFC384BC6
:101EC0001860FFF78FFF374C2378374D37490A6882
:101ED00055F82360921B0A6045F8230002440A600B
:101EE0000133594203F0070301F0070158BF4B4289
:101EF00023702F4B1B78072B02D801332C490B7012
:101F00002B4B1B7892FBF3F22A4B93ED007AB5EE44
:101F1000407AF1EE10FA36D0274B1B68D21A07EE42
:101F2000902AF8EEE77AC7EE876A244AC2ED006A83
:101F3000C31A07EE903AF8EEE77AC7EE876A204BAD
:101F40001B7893B91F4BC3ED006A1D4B01221A7019
:101F500021E001F041FC124B1B68C01AB0F5FA7F7A
:101F600019D90E4B01221A7015E0164BD3ED007AE9
:101F700076EEE76AB6EE007A66EE876A77EEA67AC4
:101F8000C3ED007A07E000230C4A13600D4A13608A
:101F90000B4B00221A7070BD00040240B6020020F4
:101FA000B8020020C4020020C8020020C0020020A5
:101FB000BC02002020000020F4020020F0020020DB
:101FC000E8020020EC020020014B93ED000A70476C
:101FD000F0020020034B93ED000ADFED037A80EE60
:101FE000270A7047F0020020A4F0CB42014B93ED8A
:101FF000000A7047EC020020034B93ED000ADFED6E
:10200000037A80EE270A7047EC020020A4F0CB424E
:10201000014B1878704700BFB6020020044B1B78B4
:102020002BB1044A126892FBF3F3034A1360704722
:10203000BC020020C0020020F4020020014B83ED0E
:10204000000A704720000020014B93ED000A704702
:1020500020000020014B1868704700BFF4020020E8
:10206000014B1860704700BFF4020020044B1B783E
:102070000BB900207047034A106890FBF3F07047DB
:10208000BC020020C0020020B5EEC00AF1EE10FA3A
:1020900000D47047B1EE400AFBE7884202D3904279
:1020A00002D87047084670471046704738B50C464E
:1020B0008A4214D9154640F6BF724021FFF7EDFF62
:1020C000A0F140032D1B05FB03F303F2BF73054A88
:1020D000A2FB0323C3F38F23181980B238BD08462F
:1020E000FCE700BF89C7144208B5F1EE047AB4EEEC
:1020F000E70AF1EE10FA09D4F2EE047AB4EEE70A38
:10210000F1EE10FA09D44FF4C87005E041F28832BC
:102110004FF4C871FFF7CAFF08BD4FF496624FF441
:10212000C871FFF7C3FFF7E708B541F28832C8214D
:10213000FFF7BCFF08BD0000044B18780138C0B29F
:1021400004288CBF00200120704700BF0803002036
:1021500008B5FFF7F1FF48B9064B1B78062B07D0EF
:10216000072B01D0002002E0012000E0012008BD83
:102170000120FCE708030020F3EE047AB4EEE70A3E
:10218000F1EE10FA08DCF2EE007AB4EEE70AF1EEB6
:1021900010FA03DC05207047322070471420704786
:1021A00008B50020044B1870044B1860044B1880CD
:1021B000FFF718FA08BD00BF080300200403002041
:1021C0000003002008B500F02DFE0023054A13701F
:1021D0000120054A1070054A1360054A1380FFF775
:1021E00001FA08BD100300200803002004030020AA
:1021F0000003002010B5044608B1204610BDFFF7CB
:10220000BFFD30B1054A12782AB1044B00221A7082
:10221000F3E70446F1E70446EFE700BFF8020020C9
:1022200008B5044BFF221A704FF0FF30FFF7FCFA9D
:1022300008BD00BF1803002008B501F08DF8054A5D
:10224000138803EB430318440230C0F38F0010805F
:1022500008BD00BF2400002070B52DED028B05469F
:102260000C46894BD3ED007A37EEC08A874B1B783A
:10227000013B062B00F20481DFE813F00700270082
:1022800047009A00C000EF00FC000123037041F2F8
:1022900088330B807E4A1380DFED7E7AB4EEE78AC6
:1022A000F1EE10FA06D9F1EE047AB4EEE70AF1EE97
:1022B00010FA05DB00F0B6FD744B02221A70DCE068
:1022C00041F2883000F0B6FED7E0022303704FF4ED
:1022D00096630B806E4A1380DFED6E7AB4EEE78A68
:1022E000F1EE10FA06D9F2EE047AB4EEE70AF1EE56
:1022F00010FA05DB00F096FD644B03221A70BCE077
:102300004FF4966000F096FEB7E004230370604B34
:102310001B880B80B0EE087A77EE877AF4EEC07AED
:10232000F1EE10FA19D4B0EE480AFFF7ADFEF0EE68
:10233000087AF4EEC07AF1EE10FA17DADFED557A8A
:10234000B4EEE78AF1EE10FA1FDD4FF4C870504B7F
:102350001880208000F06EFE8FE000F063FD4B4B94
:1023600007221A704C48FFF711FA86E000F05AFD78
:102370000526464B1E7001F02FFA00F52F70474BD3
:1023800018602E700023238077E0B0EE480AFFF734
:10239000F3FE01464FF4C8703D4A1080208000F0E3
:1023A000B3FE3A4B04221A703C4B00221A6064E0E0
:1023B0000423037000230B8000F0A8FF18B1344BF6
:1023C0001B88238059E000F0B1FF0028F7D1334B80
:1023D0001B6833B901F000FA00F5C8702F4A10608D
:1023E0004BE001F0F9F92D4B1B68984245D32B4B7C
:1023F00000221A60254B03221A703EE00523037069
:1024000000230B80B0EE087A77EE877AF4EEC07A7C
:10241000F1EE10FA0AD4F0EE087AB4EEE78AF1EEA3
:1024200010FA0ADD194B03221A7026E0174B072217
:102430001A701948FFF7AAF91FE001F0CDF9174B00
:102440001B68984219D3114B06221A7001F0C4F987
:1024500000F2DC50114A10600FE0062303700023E5
:102460000B8001F0B9F90D4B1B68984205D3FFF7BB
:1024700097FE02E0002303700B80BDEC028B70BD61
:10248000002303700B80F8E72800002008030020D9
:102490000003002000004842D0720008040300201E
:1024A00010B50446012803D0B4F5806F05D010BDE7
:1024B00000F0DAFCFFF784FCF6E7FFF729FCF6E70B
:1024C00010B504460268084B9A4204D02268074BB4
:1024D0009A4203D010BD01F073F9F7E700F058FEFF
:1024E000FFF790FBF6E700BF000C0040000400403F
:1024F00072B6FEE710B594B008AC30220021204639
:1025000004F0D4F8002303930493059306930793F0
:102510000193184A116C41F080511164126C02F061
:1025200080520192019A0293134A116841F440418A
:102530001160126802F440420292029A022208924A
:1025400001220B9210220C920E93204603F044FBC2
:1025500060B90F230393002104910591069107911F
:1025600003A803F0A3FD18B914B010BDFFF7C0FF16
:10257000FFF7BEFF00380240007000402DE9F04335
:102580002DED048B89B001F001F9FFF7B3FFFFF7E0
:10259000BFF9FFF77DFA00F0F5FFBA4802F01CFC26
:1025A00003A9002403944C608C60CC600C61402330
:1025B000039311230493B44801F03CFE11E0B24DA3
:1025C00000224021284601F0A8FF012001F00AF96D
:1025D00001224021284601F0A0FF012001F002F96C
:1025E0000134092CEBDDFFF753FAFFF72FFA00F067
:1025F000DBFB00F0ADFE01F04FF8FFF723FCFFF727
:10260000DFFAFEF71BFB03AB02AA01A96846FEF73F
:10261000A1FAF0B9FEF786FF0020FEF7E3FF9B4B1F
:10262000D3ED000A9FED9A8ADFED9A7AC0EEA70AF1
:10263000B0EE480AFEF7F6FF01F092F8F0EE400A1D
:102640000020B0EE480AFFF713F8934803F012FE9B
:10265000ABE09DED000AFFF7F1FC0198FFF700FDEC
:10266000DDED027AF5EEC07AF1EE10FA09DD9FEDAC
:102670008B7AF4EEC77AF1EE10FA02D8834BC3EDF1
:10268000007A9DED030AB5EEC00AF1EE10FAC1DB47
:10269000DFED837AB4EEE70AF1EE10FABAD801F072
:1026A00043F8B7E7FFF786FBFFF77AFD062C07D064
:1026B0007C4B00221A707C48FFF768F806249BE0E8
:1026C00000F0A2FB0020FEF78DFF002494E000F054
:1026D0001DFE002800F0958000F0A4FBFFF760FDD0
:1026E0007248FFF753F88CE001F076F8704B1B68E6
:1026F000C01A132804D801F06FF86D4B186091E0F0
:1027000000F0D6FFF7E700F001FE90B15F4B93EDCC
:10271000007ADFED687A67EE277AF4EEC87AF1EE98
:1027200010FA40F29380B4EEC87AF1EE10FA40F25B
:102730009580012C00F09580FFF7FEFC20B95E4BE0
:102740001B78062B40F0C28003A902A8B0EE680AED
:10275000FFF782FD01F040F8584B1B68C01A632850
:1027600000F283819DF80800FEF7B0FFBDF80C0071
:10277000FEF7C2FFFFF740FCB0EE408A434CD4EDB9
:10278000007ADFED448A87EEA89AFFF72FFCD4ED9C
:10279000007A30EE671A81EE281AF0EE490AB0EEA0
:1027A000480AFEF7BFFFFEF7E7FEFFF77DFBFFF7E6
:1027B000C9FA00F08DFDFFF707FCB0EE408AFFF785
:1027C00015FCF0EE408AFFF737FD8046FFF7E2FA8E
:1027D0000546FEF701FF044600238DF80830ADF8EA
:1027E0000C30FFF7B1FA0746FFF7B4FA0646FFF7D9
:1027F000DBFA00287FF456AFFFF70AFC00287FF4CD
:1028000066AF4FF400412E4801F080FE00280CBF57
:102810004FF001094FF0000904D12A4B1B78002B1F
:102820003FF462AF274B83F80090052CBBD801A37F
:1028300053F824F00727000807270008AB2A0008F0
:10284000392B0008AB2B0008D12B000800F00CFB43
:10285000FFF7A6FC1C48FEF799FF6AE700F0E2FAD2
:1028600067E756B9002F3FF467AFFFF771FC002808
:102870007FF462AFFFF7A6FC6CE700F0D3FAFFF736
:102880008FFC67E75002002000040240280000206F
:1028900000000000A4F0CB42800300200000FF44B1
:1028A0000000B44310030020E0720008F472000836
:1028B000FC020020CDCC8C3F080300201403002034
:1028C00000000240F902002008730008FFF752FAE6
:1028D00081461CB9002F4ED1002E73D11FB916B9F5
:1028E000B9F1000F7DD074B9B9F1000F0BD057B911
:1028F0004EB9002D7DDC002DC0F29080C34B1B78BB
:10290000002B40F0A080FFF73BFA48B1BF4B1B788B
:10291000002B00F0A48000F085FABC4B00221A7056
:10292000B9F1000F7FF416AF002D3FF413AF07EE9F
:10293000905AF8EEE77A9FEDB67A67EE877AB54B54
:10294000D3ED006A77EEA67AC3ED007AF4EEC77A8B
:10295000F1EE10FA01D583ED007AAE4B93ED007ADB
:10296000DFEDAD7AB4EEE77AF1EE10FA7FF7F2AE72
:10297000C3ED007AEEE600F095FA0028ACD1B0EE97
:10298000480A4046FFF7B0FBF1EE047AB4EEE78A5E
:10299000F1EE10FA07D501238DF80830ADF80C00E0
:1029A00000F048FB9FE7F2EE047AB4EEE78AF1EE1E
:1029B00010FA03D502238DF80830EFE703238DF8D2
:1029C0000830EBE700F0B4FA002887D108238DF82F
:1029D00008304046FFF7A8FBADF80C0000F034FBD0
:1029E00081E700F093FC00283FF47DAF00F01AFA75
:1029F00079E700F057FA00287FF47DAF07238DF8C0
:102A00000830C820ADF80C0000F05AFA00F0E4FEDF
:102A1000824B18607D4B01221A7074E700F088FA2F
:102A200000287FF46BAF07238DF80830C820ADF87D
:102A30000C0000F077FB00F0CFFE784B1860734B72
:102A400001221A705FE700F0C7FE744B1B68C31ABF
:102A5000B3F5967FFFF457AF00F0E4F953E7FFF7C3
:102A60007FF90220FEF7BEFD57E700F0B5FE6C4B84
:102A70001860FFF7AFFA674BD3ED000ADFED697A14
:102A8000C0EEA70AFEF7CEFD00F01CFEB0EE408AB5
:102A900000F066FEF0EE408A00F068FEF0EE680A94
:102AA000B0EE480AFEF7E4FD5CE6002D09DC002DDF
:102AB0000ADB3046FFF79EFB48B10020FEF792FD8F
:102AC00071E6FEF7C9FEF4E7FEF7DCFEF1E7FFF77B
:102AD00047F900283FF467AEFEF7EAFE04283FF608
:102AE00062AEDFE800F003060D131E00FFF76AFB7D
:102AF00059E64D4B01221A700320FEF773FD52E692
:102B0000444B93ED000AFEF7A5F84CE6464B012234
:102B10001A7000F025FEFEF76DFE0520FEF762FD3F
:102B200041E6414B01221A70FFF77AFB00F008FCE6
:102B30000020FEF757FD36E63046FFF75BFB48BB4B
:102B400065BBFFF70DF900283FF42DAEFEF7DAFE66
:102B5000042827D8354B03EB001393ED027AD3ED0D
:102B6000037A77EE877AB6EE007A67EE877A9FED82
:102B70002D7A67EE877A274BC3ED007A40B22C4B53
:102B80001870FEF751FE284B01221A700020FEF744
:102B900029FD08E60020FEF725FD04E62846FEF79D
:102BA0008DFECEE7DFED237AE5E7FEF76BF858B14F
:102BB0002846FEF7A7F8FFF7D3F810B9FEF7D8F8C4
:102BC000F1E5FEF76DF8F9E70020FEF70BFDEAE509
:102BD00095BBFFF7C5F8002841D0FFF735FAB0EEF6
:102BE000408AFFF737FA04460A4BD3ED008A00F01B
:102BF000B7FDB0EE401AF0EE680A2046B0EE480A83
:102C0000FDF7D6FF0220FEF7EDFCCCE51003002017
:102C1000EA262341280000200000FF440C03002086
:102C200014030020A4F0CB42F80200205C730008DB
:102C3000180300200000000000F092FD07EE905AFB
:102C4000F8EEE77AB1EE047A67EE877A30EE270A7B
:102C500000F06AFD00F084FDFEF7CCFDB9E73046D8
:102C6000FFF7C8FA00283FF49EAD0020FEF7BAFC3B
:102C700099E500BF0023054A1380054A1370054AF1
:102C80004FF000519161044A1370704728030020EF
:102C90003003002000040240200300204FF47A7328
:102CA00000FB03F363330548A0FB03204009632BBB
:102CB00001D980B270470120704700BF1F85EB51DA
:102CC00048B142F21072B2FBF0F0012801D980B293
:102CD00070470220FBE7704710B504460888FFF7ED
:102CE000EFFFA04238BF204680B210BD08B5408833
:102CF00000B90120FFF7D2FF08BD0000818801B9AB
:102D000001211D4B1A8892B21C4B1B889BB29A4220
:102D100014D91948028892B2184B1B889BB2D21A58
:102D200092B203889BB2914294BF5B1A9B1A9BB2EA
:102D3000038003889BB2124A138070470E4B1A8897
:102D400092B20E4B1B889BB29A4213D20B4B1A883D
:102D500092B2094803889BB2D21A92B203889BB2FE
:102D6000914294BF5B189B189BB2038003889BB26F
:102D7000034A1380704700BF1C0300201E0300207D
:102D80002803002008B530B101224FF480410548E6
:102D900001F0C3FB08BD00224FF48041014801F05F
:102DA000BCFBF7E70004024008B500224FF4805155
:102DB0000B4801F0B2FB00230A4A13700A4A136061
:102DC0000A4A13800A4A13800A4A13700A4A138077
:102DD0000A4A13800A4A13800A4A138008BD00BFBA
:102DE00000040240300300202C03002028030020B0
:102DF00026030020200300201E0300201C030020C7
:102E0000240300202203002072B6054B1B78042BFC
:102E100001D062B67047024B00221A70F9E700BF7A
:102E20003003002010B572B60024094B1C80094BFA
:102E30001C7022464FF40051074801F06EFB074B0F
:102E40001C70074B1C80074B1C8062B610BD00BF76
:102E5000280300203003002000040240200300204B
:102E600024030020220300200023084A1380084A7C
:102E700004211170074A4FF000519161064A137006
:102E8000064A1380064A1380704700BF28030020BB
:102E9000300300200004024020030020240300200F
:102EA0002203002008B54FF40041044801F02EFB36
:102EB000012814BF0020012008BD00BF000402400B
:102EC000144B1B78042B23D010B50446FFF7EAFF00
:102ED00000B110BD0120FFF755FF2046FFF7F0FEBF
:102EE00072B60D4B18800D4B18800D4B18800D4B92
:102EF00000221A80074B1B78012B01D00A4B188047
:102F00000A4B00221A80034B01221A7062B6E0E7D6
:102F1000704700BF300300201E0300201C03002068
:102F20002803002022030020260300201A0300208B
:102F300008B54FF48071044801F0E8FA012814BF85
:102F40000020012008BD00BF00000240F8B51F4668
:102F50002F4B1B78042B0BD006460C46154641B16F
:102F6000FFF7A0FF20B92846FFF7AAFE054618B9CB
:102F7000F8BDFFF7DDFFF5E72046FFF703FF72B668
:102F8000234B1B78B34221D0224B1D803946284663
:102F9000FFF7A2FE204B18801B889BB21F4A1380AC
:102FA00013889BB21E4A13803846FFF79FFE1D4BC5
:102FB000188000231C4A1380154A16701B4A4FF0D4
:102FC000005191611A4A137062B6D1E7114B1D800E
:102FD000154B00221A80104B1B889BB26BB93946E7
:102FE0002846FFF779FE0C4B18801B889BB20B4AD2
:102FF000138013889BB20A4A13800A4B1B889BB22A
:10300000002BE1D13846FFF771FE064B1880DBE755
:10301000300300201E0300201C0300202803002092
:10302000260300201A03002022030020000402408F
:103030002003002008B50246024B01210846FFF795
:1030400085FF08BD5473000808B50246024B0021F5
:103050000220FFF77BFF08BD54730008002B3DD012
:10306000F8B505460E4614461F461D4B1B78042B2B
:1030700008D041B1FFF716FF20B92046FFF720FE28
:10308000044618B9F8BDFFF753FFF5E73046FFF7E0
:1030900079FE72B6134B1C8006992046FFF71CFE82
:1030A000114B18801B889BB2104A138013889BB267
:1030B0000F4A13800698FFF719FE0E4B18800E4B2F
:1030C0001F80074B1D700D4B4FF000529A6100237B
:1030D0000B4A13700B4A138062B6D3E7704700BFE8
:1030E000300300201E0300201C03002028030020C2
:1030F000260300201A0300202203002000040240BF
:10310000200300202403002000B583B002460B46B4
:103110000349009101210846FFF7A0FF03B000BD5D
:1031200054730008134B1B78042B22D010B50446AF
:10313000FFF7FEFE00B110BDFFF724FE2046FFF7AB
:10314000BFFD72B60C4B18800C4B18800C4B1880CE
:103150000C4B00221A80074B1B78022B01D00A4B24
:1031600018800A4B00221A80024B02221A7062B6A3
:10317000E1E77047300300201E0300201C030020FD
:103180002803002022030020260300201A03002029
:10319000464B1B889BB293B1444A13889BB2013BB8
:1031A0009BB2138013889BB24BB903F1804303F5A4
:1031B00001334FF000529A613D4B00221A703D4B93
:1031C0001B889BB2002B70D010B53B4B1B78012B9A
:1031D00018D0394B1B78022B1BD0384B1B889BB265
:1031E000F3B1364A13889BB2013B9BB21380344B38
:1031F0001B889BB2F3B1324A13889BB2013B9BB24E
:10320000138010BDFFF74EFE0028E2D0FFF732FD1D
:10321000F7E7FFF78DFE0028DFD0FFF72BFDF0E783
:10322000284C2046FFF762FD244B18802046FFF70C
:1032300065FDDCE71F4B1B889BB2214A13801C4BAA
:103240001B78002BDDD103F1804303F501334FF4EC
:1032500000529A610123164A1370144A1380164BC8
:103260001B78012B17D0144B1B78022B18D0164B50
:103270001B889BB2002BC4D0134A13889BB2013B1E
:103280009BB2138013889BB2002BBAD1094A1380DA
:10329000094A1370B5E70D4A136801331360E6E776
:1032A0000A4A1368013B1360E1E7704724030020DA
:1032B0002003002028030020300300201A030020F0
:1032C0002603002054730008220300202C03002052
:1032D00008B50D4B1B78042B07D00B4B1B78012B2B
:1032E00004D0094B1B78022B07D008BDFFF7DAFD8D
:1032F0000028F6D0FFF796FDF3E7FFF719FE002848
:10330000F3D0FFF78FFDF0E730030020064B1B786A
:10331000012B07D0044B1B78022B01D000207047F3
:10332000012070470120704730030020034B1888AC
:1033300080B2003818BF0120704700BF2203002070
:1033400072B6024B00221A6062B670472C0300204E
:1033500008B5FDF7EFFA08BD00B583B00023ADF85E
:1033600006300DF1060203210220FDF711FB18B112
:10337000BDF8060003B000BD0020FBE782B00021CD
:1033800000910B4B5A6C42F480425A645A6C02F41E
:1033900080420092009A01911A6C42F080521A64A5
:1033A0001B6C03F080530193019B02B0704700BF78
:1033B0000038024000B589B00023039304930593BD
:1033C00006930793026803F1804303F590339A4212
:1033D00001D009B000BD0021019103F58C335A6C76
:1033E00042F480725A645A6C02F480720192019A1B
:1033F00002911A6B42F001021A631B6B03F0010386
:103400000293029B062303930323049303A9024818
:1034100000F010FFDDE700BF0000024030B589B0CA
:10342000044600230193214B1A6C42F008021A64EF
:103430001B6C03F008030193019B02A903A802F08F
:10344000FBFE069BCBB902F0E7FE0346184AA2FB3F
:1034500003239B0C013B1748174A026040F2E732F6
:10346000C2604360002303618360836103F042F81C
:10347000054630B1284609B030BD02F0CDFE43000C
:10348000E4E70C4802F0F6FE05460028F2D13220AF
:1034900000F0D0FC0F2C01D90125EBE700222146DA
:1034A000322000F0B7FC054B1C60E3E70038024017
:1034B00083DE1B4334030020000C00403800002052
:1034C000FEE7FEE7FEE7FEE7FEE77047704770475E
:1034D000704708B5012001F027F808BD08B54FF482
:1034E000806001F021F808BD08B5024802F042FAF8
:1034F00008BD00BF5002002008B5024802F009FBD9
:1035000008BD00BF5002002008B5024802F0F0FEDE
:1035100008BD00BF3403002008B5024802F0E8FEF1
:1035200008BD00BF8003002010B503460C4A0D49BA
:103530000D48006840B10C4800680344521A934299
:1035400006D8094A136010BD0748084C0460F2E72A
:1035500003F0C8F80C2303604FF0FF30F3E700BF1F
:1035600000000220000400007C0300201805002059
:10357000034AD2F8883043F47003C2F888307047A9
:1035800000ED00E000B583B00023009301930E48E6
:103590000E4A02600F22426083606323C36080236F
:1035A000836102F0A7FF48B90023009301936946A5
:1035B000054802F0CBFF20B903B000BDFEF798FF2D
:1035C000F2E7FEF795FFF7E78003002000040040D4
:1035D00002680E4B9A4200D0704700B583B00022BB
:1035E000019203F50D33196C41F0020119641B6C53
:1035F00003F002030193019B02211D2000F00AFC4D
:103600001D2000F017FC03B000BD00BF0004004007
:1036100000B583B00023ADF806300DF10602072196
:103620000120FDF7B5F920B3BDF8063007EE103ADA
:10363000B8EE477ADFED136AC7EE267A9FED127A6D
:1036400067EE877A77EEA77AB1EE047A87EE870A7B
:10365000DFED0E7A20EE270AB5EEC00AF1EE10FA81
:103660000CD4B4EEE70AF1EE10FA05DD9FED070A7F
:1036700002E0074B93ED000A03B000BD9FED050A81
:10368000FAE700BF00F07F45333353400000B443F6
:10369000C80300200000000008B5FDF74BF9FFF754
:1036A000B7FF024B83ED000A08BD00BFC80300202E
:1036B00008B5FFF7ADFF024B83ED000A08BD00BF60
:1036C000C803002008B5FFF7A3FF124BD3ED007A23
:1036D00030EE670ADFED107AB4EEE70AF1EE10FA89
:1036E00009D5DFED0E7A30EE270AB5EEC00AF1EE0D
:1036F00010FA0CD408BDDFED0A7AB4EEE70AF1EE59
:1037000010FAF2DDDFED057A30EE670AEDE79FEDA6
:10371000050AEFE7C8030020000034C30000B443EB
:103720000000344300000000B5EEC00AF1EE10FACC
:1037300009D4DFED087AB4EEE70AF1EE10FA04DD01
:103740009FED040A01E09FED040A044B83ED000A9B
:10375000704700BF0000B4430000000030000020AC
:10376000014B93ED000A70473000002008B5FFF7C9
:10377000A9FF054BD3ED007AB4EEE70AF1EE10FA9B
:10378000ACBF0120002008BD3000002008B50B4B65
:103790001A6842F400721A601A6842F480621A6071
:1037A0001A6842F480721A60032000F021FB0F2097
:1037B000FFF734FEFFF7E2FD002008BD003C0240A9
:1037C000034A1168034B1B780B441360704700BF1A
:1037D000CC03002034000020014B1868704700BF64
:1037E000CC03002038B50446FFF7F6FF0546B4F1D8
:1037F000FF3F02D0044B1B781C44FFF7EDFF401B3A
:10380000A042FAD338BD00BF340000204A4B5A68AA
:1038100022F440325A605A6841680A435A6002688A
:10382000536823F48073536002685368016943EA64
:10383000012353600268536823F0407353600268A9
:10384000536881680B4353600268936823F40063F4
:10385000936002689368C1680B439360826A374B38
:103860009A4257D00268936823F0706393600268AD
:103870009368816A0B4393600268936823F0405316
:10388000936002689368C16A0B439360026893680F
:1038900023F00203936002689368017E43EA4103C8
:1038A000936090F82030002B3FD00268536843F4B7
:1038B000006353600268536823F4604353600168F7
:1038C0004B68426A013A43EA42334B600268D36A6A
:1038D00023F47003D3620168CB6AC269013A43EAF8
:1038E0000253CB620268936823F40073936002680A
:1038F000936890F8301043EA41239360026893681C
:1039000023F48063936002689368416943EA8123EA
:10391000936070470268936823F070639360026855
:10392000936823F040539360B0E70268536823F430
:1039300000635360CAE700BF002301400100000F8D
:1039400038B310B50446036C43B1236C13F0100F69
:103950000BD00120002384F83C3010BDFFF72AFD76
:103960000023636484F83C30EFE7236C23F488532E
:1039700023F0020343F0020323642046FFF746FFCF
:1039800000206064236C23F0030343F001032364ED
:10399000E0E701207047000082B00023019390F817
:1039A0003C30012B6ED0012380F83C3003689A68CC
:1039B00012F0010F13D19A6842F001029A60344B61
:1039C0001B68344AA2FB03239B0C03EB43030193C4
:1039D00002E0019B013B0193019B002BF9D102689E
:1039E000936813F0010F42D0036C23F4E06323F0DB
:1039F000010343F480730364536813F4806F05D0AC
:103A0000036C23F4405343F480530364036C13F4B6
:103A1000805F19D0436C23F006034364002380F8D1
:103A20003C306FF0220313601B4B5B6813F01F0FD9
:103A30000DD103689A6812F0405F25D19A6842F070
:103A400080429A6000201BE000234364E6E703689D
:103A5000124A934201D0002012E09A6812F0405FAF
:103A600014D19A6842F080429A60002008E0036C0A
:103A700043F010030364436C43F0010343640020EC
:103A800002B070470220FBE70020F9E70020F7E7CB
:103A90002C00002083DE1B43002301400020014056
:103AA00090F83C30012B19D0012380F83C3002689B
:103AB000936823F00103936003689B6813F0010F80
:103AC00007D1036C23F4885323F0010343F001036F
:103AD0000364002380F83C3018467047022070478A
:103AE00070B504460D4603689A6812F4806F03D0DF
:103AF0009B6813F4807F19D1FFF76EFE064623689A
:103B00001A6812F0020F20D1B5F1FF3FF7D0B5B916
:103B100023681B6813F0020FF1D1236C43F00403F8
:103B20002364002384F83C30032032E0036C43F02C
:103B300020030364002380F83C30012029E0FFF7D4
:103B40004BFE801BA842DAD9E2E76FF012021A603E
:103B5000236C43F40073236423689A6812F0405F77
:103B600016D1207EB0B9DA6A12F4700F03D09B68C8
:103B700013F4806F0DD1236C23F480732364236CC2
:103B800013F4805F05D1236C43F00103236400E04C
:103B9000002070BD0020FCE70368D86C704700006F
:103BA00030B482B00022019290F83C20012A00F04B
:103BB000C0800346012280F83C200A68092A40D9C7
:103BC0000468E06892B202EB42021E3A4FF0070C22
:103BD0000CFA02F220EA0202E2601C68E0680A883D
:103BE00002EB42021E3A8D6805FA02F20243E260DD
:103BF0004A68062A3CD81C68606B02EB8202053AD0
:103C00004FF01F0C0CFA02F220EA020262631C68F9
:103C1000606B4A6802EB8202053AB1F800C00CFA08
:103C200002F2024362631868434A904250D0186817
:103C3000414A904259D0002083F83C0002B030BC89
:103C400070470468206992B202EB42024FF0070C01
:103C50000CFA02F220EA020222611C6820690A883A
:103C600002EB42028D6805FA02F202432261BFE7CD
:103C70000C2A16D81D68286B02EB8202233A1F24F7
:103C800004FA02F220EA02022A631D68286B4A68DD
:103C900002EB8202233A0C8804FA02F202432A63FE
:103CA000C1E71D68E86A02EB8202413A1F2404FA68
:103CB00002F220EA0202EA621D68E86A4A6802EB40
:103CC0008202413A0C8804FA02F20243EA62AAE74D
:103CD0000A68122AABD1194A506820F400005060DB
:103CE000506840F480005060A1E70A68144882429E
:103CF00001D0112A9FD1114A506820F480005060F1
:103D0000506840F40000506009680D4A914292D119
:103D10000C4A12680C49A1FB0212920C02EB8202BF
:103D200052000192019A002A85D0019A013A01922B
:103D3000F8E7022082E700BF002001400023014095
:103D4000120000102C00002083DE1B43002807DB3C
:103D500000F01F02400901239340024A42F820303C
:103D6000704700BF00E100E000280CDB00F01F02FC
:103D70004009012393402030034A42F82030BFF32A
:103D80004F8FBFF36F8F704700E100E0002808DB22
:103D90000901C9B200F1604000F5614080F80013EC
:103DA000704700F00F000901C9B2014B1954704768
:103DB00014ED00E000B500F00700C0F1070CBCF105
:103DC000040F28BF4FF0040C031D062B0ED9C31E91
:103DD0004FF0FF3E0EFA0CF021EA000199400EFA76
:103DE00003FE22EA0E0241EA020000BD0023EFE7D3
:103DF000074AD36823F4E0631B041B0C000200F4A1
:103E0000E060034343F0BF6343F40033D360704783
:103E100000ED00E010B50446054BD868C0F3022061
:103E2000FFF7C8FF01462046FFF7B0FF10BD00BFF7
:103E300000ED00E008B5FFF789FF08BD08B5FFF702
:103E400093FF08BD90F83530022B03D080234365E3
:103E500001207047052380F835300268136823F08D
:103E6000010313600020704790F835007047000090
:103E700010B40A490C6924F440740C610C6944F4D0
:103E800040740C610C6944F001040C610260BFF3E2
:103E90006F8F43605DF8044B704700BF003C0240E9
:103EA000074B1A6922F440721A611A6942F40072CF
:103EB0001A611A6942F001021A610160704700BF7D
:103EC000003C0240074B1A6922F440721A611A69D9
:103ED00042F480721A611A6942F001021A6101808B
:103EE000704700BF003C0240064B1A6922F4407242
:103EF0001A611A691A611A6942F001021A610170A5
:103F0000704700BF003C0240274BDB6813F0100FE6
:103F100007D0264AD36943F01003D361224B102205
:103F2000DA60214BDB6813F0200F07D01F4AD369FA
:103F300043F00803D3611C4B2022DA601A4BDB6884
:103F400013F0400F07D0194AD36943F00403D3613B
:103F5000154B4022DA60144BDB6813F0800F07D05A
:103F6000124AD36943F00203D3610F4B8022DA6017
:103F70000D4BDB6813F4807F08D00C4AD36943F003
:103F80000103D361084B4FF48072DA60064BDB68A3
:103F900013F0020F07D0054AD36943F02003D36121
:103FA000014B0222DA607047003C02403C000020D6
:103FB000094B1B69002B01DB00207047064B074AA9
:103FC0005A6002F188325A601B69002B01DB002025
:103FD00070470120704700BF003C02402301674545
:103FE000034A136943F0004313610020704700BF88
:103FF000003C024038B50446144B0022DA61FFF75A
:10400000EBFB0546124BDB6813F4803F0AD0B4F19A
:10401000FF3FF7D024B1FFF7DFFB401BA042F1D9EF
:1040200003200DE00A4BDB6813F0010F02D0084BB0
:104030000122DA60064BDB6813F4F97F01D100201E
:1040400038BDFFF761FF0120FAE700BF3C00002008
:10405000003C0240F8B516461B4A127E012A30D0B9
:1040600004460D461F46184B01221A764CF250307A
:10407000FFF7C0FF90B9ACB1012C18D0022C1BD0B7
:1040800032463B462846FFF7F3FE4CF25030FFF72E
:10409000B1FF0E4A136923F0010313610A4B00229A
:1040A0001A76F8BDF1B22846FFF71EFFEDE7B1B270
:1040B0002846FFF707FFE8E731462846FFF7F0FEFE
:1040C000E3E70220EDE700BF3C000020003C024097
:1040D000074B1A6922F440721A611A6942F004020D
:1040E0001A611A6942EA002242F480321A6170476A
:1040F000003C0240012905D0022906D039B14FF415
:10410000407104E04FF4807101E04FF400710B4BFB
:104110001A6922F440721A611A690A431A611A690B
:1041200022F0F8021A611A6942EAC00040F0020067
:1041300018611A6942F480321A617047003C0240EB
:10414000164B1B6813F4007F10D0144B1A6822F42E
:1041500000721A601A6842F400621A601A6822F447
:1041600000621A601A6842F400721A600B4B1B68F6
:1041700013F4806F10D0094B1A6822F480621A6021
:104180001A6842F480521A601A6822F480521A6047
:104190001A6842F480621A60704700BF003C024017
:1041A000F8B5224B1B7E012B3ED004460E461F4B1A
:1041B00001221A764CF25030FFF71CFF074670BB05
:1041C0004FF0FF3333602368012B16D0A568E368F6
:1041D000A2681344AB4220D9217C2846FFF78AFF0E
:1041E0004CF25030FFF706FF114A136923F0FA032F
:1041F0001361074680B90135E9E76168207CFFF764
:1042000067FF4CF25030FFF7F5FE0746084A136986
:1042100023F00403136100E03560FFF791FF034BC7
:1042200000221A763846F8BD0227FBE73C00002042
:10423000003C024000230F2B00F2D78070B582B003
:1042400065E085684FEA430E032404FA0EF425EA7C
:104250000405CC6804FA0EF42C438460446824EA14
:1042600002044A68C2F300129A40224342605CE0B2
:10427000DC08083450F8242003F00705AD004FF0A7
:104280000F0E0EFA05FE22EA0E0E0A69AA4042EA55
:104290000E0240F824205CE0042200E0002202FA32
:1042A0000EF22A430234514D45F82420504A9468B6
:1042B0006FEA0C0224EA0C054E6816F4801F01D048
:1042C0004CEA04054A4CA560E46802EA04054E681D
:1042D00016F4001F01D04CEA0405454CE560646803
:1042E00002EA04054E6816F4003F01D04CEA0405CA
:1042F0003F4C6560246822404D6815F4803F01D032
:104300004CEA04023A4C226001330F2B6BD8012295
:104310009A400C6804EA020C32EA0404F4D14C68B6
:1043200004F00304013C012C8BD94A6802F003021B
:10433000032A09D0C4685D000322AA4024EA0204CB
:104340008A68AA402243C2604A6802F00302022A35
:104350008ED004684FEA430E032202FA0EF224EADA
:1043600002044A6802F0030202FA0EF222430260DB
:104370004A6812F4403FC7D0002201921D4A546C93
:1043800044F480445464526C02F480420192019AD5
:104390009C08A51C154A52F8255003F0030E4FEA5D
:1043A0008E0E0F2202FA0EF225EA0205124A904200
:1043B0003FF474AF02F5806290420ED002F5806245
:1043C00090420CD002F5806290420AD002F58062E1
:1043D00090423FF461AF072261E701225FE70222CA
:1043E0005DE703225BE702B070BD70470038014013
:1043F000003C0140003802400000024000230F2B27
:104400007CD8F0B52DE0042500E0002505FA0CF578
:10441000A54257D004685D004FF0030C0CFA05FC70
:1044200024EA0C0404604FEAD30E0EF1080E50F893
:104430002E4003F00706B6000F25B54024EA050418
:1044400040F82E40C46824EA0C04C460446824EA9E
:1044500002024260826822EA0C02826001330F2B62
:104460004BD801229A4002EA010632EA0104F5D152
:104470004FEA930E0EF10205214C54F8254003F04B
:10448000030C4FEA8C0C0F2505FA0CF73C401D4D30
:10449000A842BAD005F58065A8420DD005F5806523
:1044A000A8420BD005F58065A84209D005F58065C6
:1044B000A842A8D00725A9E70125A7E70225A5E777
:1044C0000325A3E7104C256825EA060525606568E5
:1044D00025EA06056560E56825EA0605E560A56844
:1044E00025EA0605A560064E0EF1020456F8245092
:1044F00025EA070546F824508CE7F0BD704700BF59
:104500000038014000000240003C014003691942AC
:1045100001D001207047002070470AB181617047C7
:10452000090481617047000008B5054B5B690342CF
:1045300000D108BD024B5861FDF7B2FFF9E700BF9B
:10454000003C014003685A6912F0800F01D000223C
:104550001A61704790F83E30402B10D00369B3F5D4
:10456000804F1BD0036D002B38D1436CC3F3C813AD
:10457000026803F0060343F0F00313617047036D14
:104580002BB9436C026803F0FE0313617047436C60
:10459000026843F00103DBB21361704790F83D30CD
:1045A000212B0FD0436C026843F00103DBB213618F
:1045B000436B6BB1DB6B5BB10268536843F4006320
:1045C00053607047436C026803F0FE031361EFE72A
:1045D000836B33B1DB6B002BEED102E0036D012B5B
:1045E00000D07047436CC3F3C813026803F006039E
:1045F00043F0F1031361F4E7436C0268DBB213612B
:10460000436B3BB1DB6B2BB10268536843F400632F
:1046100053607047836B002BFBD0DB6B002BF3D117
:10462000F7E7000010B48BB090F83E30C16A046B1D
:1046300090F83D20222A0BD00023099303685A6981
:1046400009929B690993099B0BB05DF8044B704775
:10465000DBB2026D0AB9402B17D0036D1BB9036999
:10466000B3F5404F1AD0438D9BB2002B26D1029355
:1046700003685A6902929A690292029A1A6842F48D
:1046800000721A6000230365DEE7002300930368CD
:104690005A6900929B690093009BD5E70023019320
:1046A00003685A6901929A690192019A1A6842F460
:1046B00080721A60036D01330365C5E7438D9BB2B9
:1046C000012B26D0438D9BB2022B7CD0026813684D
:1046D00043F48063136003685A6812F4006F0FD0CC
:1046E000202900F2AE800829C0F0A7800839574A77
:1046F000CA4012F0010F03D05A6842F480525A6047
:104700000023089303685A6908929B690893089BE1
:10471000B8E711F5803F11D0082934D0202932D0D4
:10472000122C2ED0042940D002293ED010293CD092
:104730000268136823F4806313603BE00268136827
:1047400023F48063136003685A6812F4006F0CD07E
:104750001A6822F480621A600023039303685A697E
:1047600003929B690393039B8CE7002204925A698E
:1047700004929A690492049A1A6842F400721A60C8
:1047800080E70129D0D00268136823F480631360A6
:104790000023069303685A6906929A690692069A5C
:1047A0001A6842F400721A606CE70268136843F4F6
:1047B000806313600023059303685A6905929B691F
:1047C0000593059B5EE710290AD8214BCB4013F0D7
:1047D000010F05D00268136843F48063136009E099
:1047E0000268136823F4806313600268136843F45B
:1047F0000063136003685A6812F4006F0DD020291B
:1048000017D8082912D30839104ACA4012F0010FEC
:1048100003D05A6842F480525A6000230793036819
:104820005A6907929B690793079B2BE70129F4D1EB
:10483000EFE711F5803FF0D1EBE701297FF460AF9E
:104840005AE711F5803F7FF45BAF55E701010001A6
:1048500014000100438D9BB25BB1426A0368127879
:104860001A61436A01334362438D9BB2013B9BB2A1
:1048700043857047438D9BB25BB103681A69436AF5
:104880001A70436A01334362438D9BB2013B9BB272
:104890004385704782B0002301930E4B1B68DB08F1
:1048A0000D4AA2FB03231B0A03EB83030193019B25
:1048B000013B0193019B33B103681B6813F4007F34
:1048C000F5D1002004E0036C43F0200303640120D1
:1048D00002B070472C00002089B5F81403685A69AB
:1048E00012F4806F01D1002070476FF480625A612A
:1048F00000230363202280F83D2080F83E30026CC4
:1049000042F00402026480F83C3001207047C36A20
:10491000B3F52A0F04D0C36AB3F12A4F03D070470E
:104920000123C36270470823C362F8E72DE9F04111
:1049300006460C46174698463BE0FEF74DFF069BA1
:10494000C01A404502D8B8F1000F32D1012D18D05D
:1049500033689B6924EA03039BB2B3FA83F35B09D0
:104960009F4226D100233363202286F83D2086F81B
:104970003E30326C42F02002326486F83C30012036
:1049800027E033685B6924EA03039BB2B3FA83F33D
:104990005B09E5E733685B6924EA030C1FFA8CFCCA
:1049A000BCFA8CFC4FEA5C1C674511D1B8F1FF3FA3
:1049B000C3D1C4F30745012DECD033689B6924EAC9
:1049C000030C1FFA8CFCBCFA8CFC4FEA5C1CEBE776
:1049D0000020BDE8F0812DE9F84305460E469046DB
:1049E000994653E01A6842F400721A602B686FF41B
:1049F00080625A6100232B63202285F83D2085F8D0
:104A00003E302A6C42F004022A6485F83C300120D2
:104A10004AE0FEF7E1FEA0EB0900404502D8B8F1FC
:104A2000000F33D1012F17D02B689B6926EA0303AF
:104A30009BB2003B18BF012343B300232B6320220A
:104A400085F83D2085F83E302A6C42F020022A6429
:104A500085F83C30012027E02B685B6926EA0303D8
:104A60009BB2003B18BF0123E6E72B689C6926EA4E
:104A70000404A4B2003C18BF0124A4B12B685A69F5
:104A800012F4806FAED1B8F1FF3FC2D1C6F3074731
:104A9000012FEAD12B685C6926EA0404A4B2003C29
:104AA00018BF0124E9E70020BDE8F883F0B583B022
:104AB00004460D4616461F46C36A082B0DD0012B2F
:104AC0000BD013F5803F08D0036B122B0AD102687C
:104AD000136843F48073136004E02268136843F49E
:104AE000807313600097334600224FF00111204677
:104AF000FFF71CFF80B92369B3F5804F16D12368F7
:104B000005F0FE051D613B46324613492046FFF77E
:104B100062FFF8B903B0F0BD23681B6813F4807F0F
:104B200002D04FF4007323640320F3E7EB112268F3
:104B300003F0060343F0F00313613B463246074996
:104B40002046FFF748FF18B92368EDB21D61DAE788
:104B50000120DFE70120DDE702000100080001007D
:104B600070B504460D46164623685B6913F0800F46
:104B700021D12046FFF7B2FEF8B9B5F1FF3FF3D0DF
:104B8000FEF72AFE801BA84201D8002DECD1236835
:104B90005B6913F0800FE7D100232363202284F8A0
:104BA0003D2084F83E30226C42F02002226484F8DA
:104BB0003C30012000E0002070BD0120FCE770B512
:104BC00004460D46164623685B6913F0040F21D195
:104BD0002046FFF783FEF8B9B5F1FF3FF3D0FEF7AB
:104BE000FBFD801BA84201D8002DECD123685B6936
:104BF00013F0040FE7D100232363202284F83D2023
:104C000084F83E30226C42F02002226484F83C306A
:104C1000012000E0002070BD0120FCE7002800F02A
:104C2000CC8070B5044690F83D30002B77D024231B
:104C300084F83D302268136823F001031360226872
:104C4000136843F4004313602268136823F400439D
:104C5000136001F0E1FA62685A4B9A4264D85A4BE9
:104C600098428CBF00230123002B40F0A8805749B5
:104C7000A1FB00318B0C25686A6822F03F0242EAF2
:104C800091426A6021680A6A22F03F0266684D4DCF
:104C9000AE424FD8013313430B622168CA6922F434
:104CA0004F4222F0FF026568464B9D424CD8431E9E
:104CB0006D00B3FBF5F3013340F6FC70034278D08E
:104CC000C3F30B031A43CA6121680B6823F0C003C6
:104CD000E269206A024313430B6021688B6823F466
:104CE000034323F0FF032269E068024313438B6010
:104CF0002168CB6823F0FF036269A0690243134374
:104D0000CB602268136843F0010313600020206425
:104D1000202384F83D30206384F83E0070BD80F885
:104D20003C30FCF7D3FE82E7294B98428CBF00232E
:104D3000012399E74FF4967505FB03F3254DA5FB79
:104D400003539B090133A6E7A668BEB9431E05EBD2
:104D5000450CB3FBFCF30133C3F30B03B3FA83F34A
:104D60005B0943BBC6B9431E05EB4505B3FBF5F331
:104D70000133C3F30B0343F40043A3E7431E05EBE6
:104D8000850C0CEB8C0CB3FBFCF30133C3F30B036E
:104D9000B3FA83F35B09E4E7431E05EB850505EBF6
:104DA0008505B3FBF5F30133C3F30B0343F4404331
:104DB00088E7042386E7012384E701207047012068
:104DC000ACE700BFA08601007F841E0083DE1B438A
:104DD000FF083D00D34D6210A8B110B5044624234E
:104DE00080F83D300268136823F001031360FCF77C
:104DF000B5FE0020206484F83D00206384F83E0066
:104E000084F83C0010BD0120704700002DE9F043FC
:104E100085B004460F46904699460C9EFEF7DCFC92
:104E200094F83D10202904D00227384605B0BDE88B
:104E3000F08305460090192301224F492046FFF7D1
:104E400075FD002840F0928094F83C30012B00F072
:104E50008F80012384F83C3023681A6812F0010F18
:104E600003D11A6842F001021A602268136823F421
:104E700000631360212384F83D30102384F83E3012
:104E800000232364C4F82480A4F82A90638D23852A
:104E90003A4BE3622B46324639462046FFF706FE80
:104EA0000746002866D10023039323685A690392BA
:104EB0009B690393039B11E0236C042B01D0012712
:104EC000B3E72268136843F400731360F7E72A46D8
:104ED00031462046FFF773FE00282ED1238D002B8C
:104EE00036D02A4631462046FFF73AFE0028E3D165
:104EF000626A236812781A61606A431C6362618D7A
:104F000089B2013989B26185238D013B9BB223852A
:104F10002268516911F0040FD9D0002BD7D0437803
:104F20001361636A01336362638D9BB2013B9BB281
:104F30006385238D013B2385C9E7236C042B01D0B6
:104F4000012772E72268136843F400731360F7E7E0
:104F50002268136843F400731360202384F83D3003
:104F6000002384F83E3084F83C305EE702275CE79B
:104F700002275AE7012758E7020010000000FFFF50
:104F800070477047704708B590F83D30DAB2438DEE
:104F90009BB283B1416A036809781961436A01339E
:104FA0004362438D9BB2013B9BB24385438D9BB2D1
:104FB0000BB9292A00D008BD0268536823F4806326
:104FC000536021230363282380F83D30FFF7DAFF85
:104FD000F1E7704708B590F83D30DAB2438D9BB2E7
:104FE00083B103681969436A1970436A01334362E4
:104FF000438D9BB2013B9BB24385438D9BB20BB962
:105000002A2A00D008BD0268536823F480635360E5
:1050100022230363282380F83D30FFF7DAFFF1E70E
:10502000704700B583B090F83D3003F02803282B7B
:105030000BD000230193026851690191926901929A
:10504000019A80F83C3003B000BD0268536823F435
:105050008063536011F0040F0BD0002311F0800F18
:1050600009D18289002180F83C101946FFF7D8FF4A
:10507000E9E70123F2E7028BF4E7704710B5044635
:1050800090F83D30DBB2C26A082A01D0202A01D153
:10509000282B06D0212B1FD023686FF480625A6121
:1050A00010BD1D4BE3622268536823F4E063536034
:1050B00023686FF480625A612268136823F4806366
:1050C000136000232363202284F83D2084F83E30BF
:1050D0002046FFF7D2FFE3E70F4BE3622123236370
:1050E000202384F83D30002384F83E302268536842
:1050F00023F4E063536023686FF480625A6122688E
:10510000136823F4806313602046FFF71BFA2046E0
:10511000FFF738FFC4E700BF0000FFFF704708B586
:10512000C26A90F83D30212B00D008BD438D9BB260
:1051300063B1426A036812781A61436A01334362B9
:10514000438D9BB2013B9BB24385EEE7082A04D016
:10515000202A02D012F5803F18D10268536823F448
:10516000E06353600268136843F400731360002324
:105170000363202380F83D3090F83E30402B15D05B
:10518000002380F83E30FFF7FBFECEE7026853684D
:1051900023F4E063536011230363002380F83E305F
:1051A000202380F83D30FFF7EBFEBEE7002380F8B8
:1051B0003E30FFF7B3FFB8E708B590F83D30026D19
:1051C0009AB9C36C012B08D0836C0268C3F3072320
:1051D0001361036D0133036508BD836C0268DBB2A4
:1051E0001361036D02330365F6E7DBB2026D012A3A
:1051F00023D0026D022A3ED1222B26D0428D92B2BC
:105200000AB1212B2AD0428D92B2002AE4D1212B5F
:10521000E2D10268536823F4E063536002681368C4
:1052200043F40073136000230363202280F83D20C1
:1052300080F83E30FFF772FFCEE7836C0268DBB286
:105240001361036D01330365C6E70268136843F415
:1052500080731360036D01330365BDE7426A036821
:1052600012781A61436A01334362438D9BB2013B5A
:105270009BB24385B0E7FFF765F9ADE710B590F84D
:105280003D30DBB290F83E20D2B2C46A018D0029D5
:105290003AD1212B02D0402A41D010BD082C04D095
:1052A000202C02D014F5803F18D10268536823F4F3
:1052B000E06353600268136843F4007313600023D3
:1052C0000363202380F83D3090F83E30402B15D00A
:1052D000002380F83E30FFF753FEDEE70268536894
:1052E00023F4E063536011230363002380F83E300E
:1052F000202380F83D30FFF743FECEE7002380F8FF
:105300003E30FFF70BFFC8E7212BC4D1438D9BB282
:1053100043B90268536823F480635360BDE7222BCE
:10532000BBD1F3E790F83E30402B0CD0426A0368C3
:1053300012781A61436A01334362438D9BB2013B89
:105340009BB24385A9E7FFF737FFA6E7704708B58B
:10535000C26A438D9BB2042B14D0438D9BB2032BA6
:1053600022D0438D9BB2022B39D003681A69436A5D
:105370001A70436A01334362438D9BB2013B9BB277
:10538000438510E00268536823F480635360036828
:105390001A69436A1A70436A01334362438D9BB2B0
:1053A000013B9BB2438508BD01684B6823F48063D1
:1053B0004B60042A06D0022A04D00268136823F442
:1053C0008063136003681A69436A1A70436A013381
:1053D0004362438D9BB2013B9BB24385E3E7531E7F
:1053E0000F2B15D8DFE803F0080E140E1414141454
:1053F000141414141414140801680B6823F4806343
:105400000B600AE001680B6843F480630B6004E002
:1054100001680B6843F400730B6003681969436A01
:105420001970416A4B1C4362438D9BB2013B9BB296
:10543000438503681B694B70436A01334362438DA4
:105440009BB2013B9BB2438501684B6823F44073D8
:105450004B60202380F83D3090F83E30402B09D03F
:10546000002380F83E30082A0BD0202A09D01223CE
:10547000036308E0002380F83E300363FFF766FF14
:1054800091E700230363FFF77CFD8CE7704738B595
:1054900090F83D30222B00D038BD0446C56A438DBC
:1054A0009BB2032B15D903681A69436A1A70436AC1
:1054B00001334362438D9BB2013B9BB24385438DD5
:1054C0009BB2032BE8D10268536823F480635360D6
:1054D000E2E7C26A022A01D0012B05D9226853688B
:1054E00023F480635360D7E7FFF7D4F9002834D161
:1054F0002268136823F4806313602268536823F4DE
:10550000E063536023681A69636A1A70636A01333F
:105510006362638D9BB2013B9BB26385202384F859
:105520003D3094F83E30402B09D0002384F83E30C3
:10553000082D0CD0202D0AD01223236309E000236C
:1055400084F83E3023632046FFF700FFA4E70023E2
:1055500023632046FFF715FD9EE72268536823F476
:10556000E063536023681A69636A1A70636A0133DF
:105570006362638D9BB2013B9BB26385202384F8F9
:105580003D30002384F83E302046FFF77FFF83E75D
:105590007047000000B583B000230193806B90F842
:1055A0003D20D2B2314B1B68DB083149A1FB03130C
:1055B0001B0A03EB8303C3EBC3030193019B43B1BA
:1055C000019B013B019303681B6813F4007FF5D135
:1055D00003E0036C43F020030364436B0BB1002131
:1055E000D963836B0BB10021D96301680B6823F485
:1055F00080630B6000234385436B0BB10021196569
:10560000836B0BB10021196501680B6823F001035E
:105610000B6090F83D30602B0DD002F02802282A54
:1056200013D0202380F83D30002380F83E30FFF770
:105630002DFF03B000BD202380F83D30002380F80B
:105640003E300364FFF7A4FFF3E70268136843F0FA
:10565000010313600268136843F48063136000233E
:105660000363282380F83D30E1E700BF2C000020D1
:1056700089B5F81410B5044690F83D30DBB290F8C7
:105680003E20102A36D0D1B2402933D003F0280270
:10569000282A37D02268526812F4006F07D1602B95
:1056A00005D0202384F83D30002384F83E300023C9
:1056B000236323685A6812F4006F47D05A6822F4B3
:1056C00000625A60636B93F83520012A20D0444A67
:1056D0001A65606BFEF7B6FB002848D02268136895
:1056E00023F001031360202384F83D30606B036DC9
:1056F00098473CE0222BC9D121680A6822F4006255
:105700000A60C3E700232363282384F83D30D0E7F1
:10571000A36B334A1A65A06BFEF794FB38B323687A
:105720005A6912F0400F05D01A69636A1A70636AE9
:10573000013363622268136823F00103136020239E
:1057400084F83D30A06B036D984710E094F83D203D
:10575000602A1FD05A6912F0400F05D01A69636A97
:105760001A70636A013363622046FFF78FFE236C71
:1057700013F00F0F04D02268536823F4E0635360E2
:1057800094F83D30DBB2226C12F0040F01D0282BCC
:1057900018D010BD202284F83D20002222645A69CE
:1057A00012F0400F05D01A69636A1A70636A0133F8
:1057B00063622268136823F0010313602046FFF739
:1057C000E7FED4E7074BE36200232363202284F83B
:1057D0003D2084F83E302046FFF74FFCD9E700BF5C
:1057E000955500080000FFFF30B583B0044690F8DF
:1057F0003D50EDB20268536823F4E0635360002328
:10580000019303685A6901921A6842F001021A6012
:10581000019B0268136823F48063136003685A686D
:1058200012F4006F38D0222D21D02A2D1FD0426BC8
:105830001268526892B24285428D92B21AB1026CDD
:1058400042F0040202645A6822F400625A60606BFB
:10585000FEF70AFB01281FD0636B444A1A65606B90
:10586000FEF7F0FAC0B1606B036D984714E0A26BCD
:105870001268526892B26285628D92B21AB1226C3D
:1058800042F0040222645A6822F400625A60A06B5B
:10589000FEF7EAFA012841D1638D9BB233B3236846
:1058A0005A6912F0040F0AD01A69636A1A70636A9F
:1058B00001336362638D9BB2013B9BB263852368B6
:1058C0005A6912F0400F0AD01A69636A1A70636A43
:1058D00001336362638D9BB2013B9BB26385638D31
:1058E0009BB21BB1236C43F004032364236C0BBBFA
:1058F0002A2D24D094F83D30282B29D0236B222B3D
:1059000001D0222D19D100232363202284F83D20C9
:1059100084F83E302046FFF75CFB0EE0A36B134A91
:105920001A65A06BFEF78EFA0028B5D0A06B036D48
:105930009847B1E72046FFF79DFE03B030BD002336
:105940002363282384F83D302046FFF742FBD1E74C
:10595000074BE36200232363202284F83D2084F870
:105960003E302046FFF789FBE7E700BF955500086A
:105970000000FFFFF8B5044603685868E66A94F82B
:105980003E10CDB294F83D20D2B2102913D0402D54
:1059900011D0216C002979D05D69002115F0020F2A
:1059A00077D010F4007F74D0226C02B19969204640
:1059B000FFF737FBF8BD9F69596911F0010F06D158
:1059C000B6F52A0FF6D0B6F12A4F03D1F2E710F45C
:1059D000007F29D111F0080F02D010F4007F2AD1E6
:1059E00011F0020F02D010F4007F28D117F0040F3D
:1059F00031D05B6813F4006FDCD111F0800F05D05B
:105A000010F4806F02D011F0040F1CD011F0040FBD
:105A1000D0D010F4007FCDD0212A18D0402DC9D18C
:105A20002046FFF7C9FBC5E72046FEF770FF20467A
:105A3000FEF790FDBEE72046FEF7DEFDBAE7204602
:105A4000FEF7F0FDB6E72046FFF718FCB2E7204668
:105A5000FFF765FBAEE75B6813F4006FAAD111F0A6
:105A6000400F05D010F4806F02D011F0040F09D060
:105A700011F0040F9ED010F4007F9BD02046FFF75A
:105A800066FC97E72046FFF702FD93E799695D6999
:105A900084E715F0100F02D010F4007F18D1212AEE
:105AA0001AD0292A18D015F0400F05D010F4806FB5
:105AB00002D015F0040F28D015F0040F3FF47AAF90
:105AC00010F4007F3FF476AF2046FEF7D3FE71E777
:105AD0002046FFF789FE6DE715F0800F05D010F422
